:1000000002016802000880FE3232320200093232F8
:1000100032323202000A323232323202000E3232D0
:0900200032323202000F3232329A
:03002B00020010C0
:03003300020011B7
:03003B00020012AE
:03004300020016A2
:03004B0002001799
:0E00530002001841000208040D016E36000084
:030063000200197F
:03006B0002001A76
:0300730002001E6A
:03007B0002001F61
:0300830002002058
:0300930002002147
:03009B000200223E
:0300A30002002632
:0300AB0002002729
:1000B300020028BB010689828A83E0225002E722DC
:1000C300BBFE02E32289828A83E49322BB010CE50F
:1000D3008229F582E5833AF583E0225006E92582F9
:1000E300F8E622BBFE06E92582F8E222E58229F53D
:1000F30082E5833AF583E49322BB010989828A83EB
:10010300F8E028F022500327F722BBFE05F8E32886
:10011300F3228A838982F8E4932822BB0106898229
:100123008A83F0225002F722BBFE01F322BB0110A7
:10013300E58229F582E5833AF583E0F5F0A3E02231
:100143005009E92582F886F008E622BBFE0AE92574
:1001530082F8E2F5F008E222E5832AF583E993F5D4
:10016300F0A3E9932278FFE4F6D8FD9000007F0026
:100173007E04E4F0A3DFFCDEFA7581100201BD0208
:100183000006E493A3F8E493A34003F68001F20886
:10019300DFF48029E493A3F85407240CC8C333C4C1
:1001A300540F4420C8834004F456800146F6DFE42C
:1001B300800B0102040810204080900056E47E0169
:1001C3009360BCA3FF543F30E509541FFEE493A39F
:1001D30060010ECF54C025E060A840B8E493A3FAB1
:1001E300E493A3F8E493A3C8C582C8CAC583CAF03D
:0F01F300A3C8C582C8CAC583CADFE9DEE780BEDC
:00000001FF
