:100000000200B602000880FE3232320200093232AB
:1000100032323202000A323232323202000E3232D0
:0900200032323202000F3232329A
:03002B00020010C0
:03003300020011B7
:03003B00020012AE
:03004300020016A2
:03004B0002001799
:0E005300020018410002080408016E36000089
:030063000200197F
:03006B0002001A76
:0300730002001E6A
:03007B0002001F61
:0300830002002058
:0300930002002147
:03009B000200223E
:0300A30002002632
:0300AB0002002729
:1000B30002002878FFE4F6D8FD9000007F007E045C
:1000C300E4F0A3DFFCDEFA75810B02010B020006EC
:1000D300E493A3F8E493A34003F68001F208DFF46A
:1000E3008029E493A3F85407240CC8C333C4540FE2
:1000F3004420C8834004F456800146F6DFE4800BB5
:100103000102040810204080900056E47E019360B1
:10011300BCA3FF543F30E509541FFEE493A36001E1
:100123000ECF54C025E060A840B8E493A3FAE4934B
:10013300A3F8E493A3C8C582C8CAC583CAF0A3C8F9
:0D014300C582C8CAC583CADFE9DEE780BEF9
:00000001FF
